{
  "contractName": "Voting",
  "abi": [
    {
      "inputs": [
        {
          "internalType": "uint256",
          "name": "startTime_",
          "type": "uint256"
        },
        {
          "internalType": "uint256",
          "name": "endTime_",
          "type": "uint256"
        }
      ],
      "payable": false,
      "stateMutability": "nonpayable",
      "type": "constructor",
      "signature": "constructor"
    },
    {
      "anonymous": false,
      "inputs": [
        {
          "indexed": true,
          "internalType": "address",
          "name": "voter_id",
          "type": "address"
        },
        {
          "indexed": true,
          "internalType": "uint256",
          "name": "candidate_id",
          "type": "uint256"
        }
      ],
      "name": "VoteCasted",
      "type": "event",
      "signature": "0xd0e6c39f2e086dc49f1524b47725526a56945cd1ff661f37976f1725a1e56986"
    },
    {
      "constant": true,
      "inputs": [
        {
          "internalType": "uint256",
          "name": "",
          "type": "uint256"
        }
      ],
      "name": "candidates",
      "outputs": [
        {
          "internalType": "string",
          "name": "name",
          "type": "string"
        },
        {
          "internalType": "string",
          "name": "party",
          "type": "string"
        },
        {
          "internalType": "uint256",
          "name": "id",
          "type": "uint256"
        },
        {
          "internalType": "uint256",
          "name": "voteCount",
          "type": "uint256"
        }
      ],
      "payable": false,
      "stateMutability": "view",
      "type": "function",
      "signature": "0x3477ee2e"
    },
    {
      "constant": true,
      "inputs": [
        {
          "internalType": "uint256",
          "name": "voter_id",
          "type": "uint256"
        },
        {
          "internalType": "address",
          "name": "account",
          "type": "address"
        }
      ],
      "name": "isVoterEligible",
      "outputs": [
        {
          "internalType": "bool",
          "name": "voterEligible_",
          "type": "bool"
        }
      ],
      "payable": false,
      "stateMutability": "view",
      "type": "function",
      "signature": "0x77da476f"
    },
    {
      "constant": true,
      "inputs": [
        {
          "internalType": "address",
          "name": "acoount",
          "type": "address"
        }
      ],
      "name": "hasVoted",
      "outputs": [
        {
          "internalType": "bool",
          "name": "userVoted_",
          "type": "bool"
        }
      ],
      "payable": false,
      "stateMutability": "view",
      "type": "function",
      "signature": "0x09eef43e"
    },
    {
      "constant": false,
      "inputs": [
        {
          "internalType": "uint256",
          "name": "candidate_id",
          "type": "uint256"
        },
        {
          "internalType": "uint256",
          "name": "voter_id",
          "type": "uint256"
        },
        {
          "internalType": "uint256",
          "name": "currentTime_",
          "type": "uint256"
        }
      ],
      "name": "castVote",
      "outputs": [],
      "payable": false,
      "stateMutability": "nonpayable",
      "type": "function",
      "signature": "0x5be5e3ec"
    },
    {
      "constant": true,
      "inputs": [],
      "name": "getVotingStartTime",
      "outputs": [
        {
          "internalType": "uint256",
          "name": "startTime_",
          "type": "uint256"
        }
      ],
      "payable": false,
      "stateMutability": "view",
      "type": "function",
      "signature": "0x6a82ee51"
    },
    {
      "constant": true,
      "inputs": [],
      "name": "getVotingEndTime",
      "outputs": [
        {
          "internalType": "uint256",
          "name": "endTime_",
          "type": "uint256"
        }
      ],
      "payable": false,
      "stateMutability": "view",
      "type": "function",
      "signature": "0xb1bf87b0"
    },
    {
      "constant": false,
      "inputs": [
        {
          "internalType": "uint256",
          "name": "startTime_",
          "type": "uint256"
        },
        {
          "internalType": "uint256",
          "name": "currentTime_",
          "type": "uint256"
        }
      ],
      "name": "updateVotingStartTime",
      "outputs": [],
      "payable": false,
      "stateMutability": "nonpayable",
      "type": "function",
      "signature": "0xb9d84552"
    },
    {
      "constant": false,
      "inputs": [
        {
          "internalType": "uint256",
          "name": "endTime_",
          "type": "uint256"
        },
        {
          "internalType": "uint256",
          "name": "currentTime_",
          "type": "uint256"
        }
      ],
      "name": "extendVotingTime",
      "outputs": [],
      "payable": false,
      "stateMutability": "nonpayable",
      "type": "function",
      "signature": "0x5d816e22"
    },
    {
      "constant": false,
      "inputs": [
        {
          "internalType": "uint256",
          "name": "index",
          "type": "uint256"
        }
      ],
      "name": "getCandidate",
      "outputs": [
        {
          "internalType": "string",
          "name": "name",
          "type": "string"
        },
        {
          "internalType": "string",
          "name": "party",
          "type": "string"
        },
        {
          "internalType": "uint256",
          "name": "id",
          "type": "uint256"
        }
      ],
      "payable": false,
      "stateMutability": "nonpayable",
      "type": "function",
      "signature": "0x35b8e820"
    },
    {
      "constant": false,
      "inputs": [],
      "name": "getCandidatesCount",
      "outputs": [
        {
          "internalType": "uint256",
          "name": "",
          "type": "uint256"
        }
      ],
      "payable": false,
      "stateMutability": "nonpayable",
      "type": "function",
      "signature": "0xbb9aa28f"
    },
    {
      "constant": true,
      "inputs": [
        {
          "internalType": "uint256",
          "name": "voter_id",
          "type": "uint256"
        }
      ],
      "name": "getVoterDetails",
      "outputs": [
        {
          "internalType": "address",
          "name": "account",
          "type": "address"
        },
        {
          "internalType": "string",
          "name": "passwordHash",
          "type": "string"
        },
        {
          "internalType": "string",
          "name": "name",
          "type": "string"
        },
        {
          "internalType": "uint256",
          "name": "age",
          "type": "uint256"
        },
        {
          "internalType": "bool",
          "name": "isAlive",
          "type": "bool"
        },
        {
          "internalType": "bool",
          "name": "hasVoted",
          "type": "bool"
        }
      ],
      "payable": false,
      "stateMutability": "view",
      "type": "function",
      "signature": "0x7b8fe166"
    },
    {
      "constant": true,
      "inputs": [],
      "name": "getResults",
      "outputs": [
        {
          "internalType": "bytes32[]",
          "name": "candidateNames",
          "type": "bytes32[]"
        },
        {
          "internalType": "uint256[]",
          "name": "voteCounts",
          "type": "uint256[]"
        }
      ],
      "payable": false,
      "stateMutability": "view",
      "type": "function",
      "signature": "0x4717f97c"
    }
  ],
  "bytecode": "0x60806040523480156200001157600080fd5b50604051620021f7380380620021f7833981810160405260408110156200003757600080fd5b8101908080519060200190929190805190602001909291905050506200006b620000db640100000000026401000000009004565b62000084620002fb640100000000026401000000009004565b816004819055508060058190555033600360006101000a81548173ffffffffffffffffffffffffffffffffffffffff021916908373ffffffffffffffffffffffffffffffffffffffff160217905550505062000aa0565b600060405180608001604052806040518060400160405280600b81526020017f43616e646964617465203100000000000000000000000000000000000000000081525081526020016040518060400160405280600781526020017f50617274792041000000000000000000000000000000000000000000000000008152508152602001600181526020016000815250908060018154018082558091505090600182039060005260206000209060040201600090919290919091506000820151816000019080519060200190620001b3929190620009f1565b506020820151816001019080519060200190620001d2929190620009f1565b506040820151816002015560608201518160030155505050600060405180608001604052806040518060400160405280600b81526020017f43616e646964617465203200000000000000000000000000000000000000000081525081526020016040518060400160405280600781526020017f50617274792042000000000000000000000000000000000000000000000000008152508152602001600281526020016000815250908060018154018082558091505090600182039060005260206000209060040201600090919290919091506000820151816000019080519060200190620002c2929190620009f1565b506020820151816001019080519060200190620002e1929190620009f1565b506040820151816002015560608201518160030155505050565b6040518060e001604052806001815260200173fba1b27a783afe48d2de6627b059581e6388dd7a73ffffffffffffffffffffffffffffffffffffffff168152602001604051806080016040528060428152602001620021b56042913981526020016040518060400160405280600681526020017f566f7465723100000000000000000000000000000000000000000000000000008152508152602001601960ff1681526020016001151581526020016000151581525060016000600181526020019081526020016000206000820151816000015560208201518160010160006101000a81548173ffffffffffffffffffffffffffffffffffffffff021916908373ffffffffffffffffffffffffffffffffffffffff160217905550604082015181600201908051906020019062000434929190620009f1565b50606082015181600301908051906020019062000453929190620009f1565b5060808201518160040160006101000a81548160ff021916908360ff16021790555060a08201518160040160016101000a81548160ff02191690831515021790555060c08201518160040160026101000a81548160ff0219169083151502179055509050506040518060e001604052806002815260200173ab255ddf10944022ddbefa349ce6847245023e8273ffffffffffffffffffffffffffffffffffffffff168152602001604051806080016040528060428152602001620021b56042913981526020016040518060400160405280600681526020017f566f7465723200000000000000000000000000000000000000000000000000008152508152602001601e60ff1681526020016001151581526020016000151581525060016000600281526020019081526020016000206000820151816000015560208201518160010160006101000a81548173ffffffffffffffffffffffffffffffffffffffff021916908373ffffffffffffffffffffffffffffffffffffffff1602179055506040820151816002019080519060200190620005f1929190620009f1565b50606082015181600301908051906020019062000610929190620009f1565b5060808201518160040160006101000a81548160ff021916908360ff16021790555060a08201518160040160016101000a81548160ff02191690831515021790555060c08201518160040160026101000a81548160ff0219169083151502179055509050506040518060e001604052806003815260200173fbd0e74627339fce677d6672c7f1689e0c56954a73ffffffffffffffffffffffffffffffffffffffff168152602001604051806080016040528060428152602001620021b56042913981526020016040518060400160405280600681526020017f566f7465723300000000000000000000000000000000000000000000000000008152508152602001604d60ff1681526020016001151581526020016000151581525060016000600381526020019081526020016000206000820151816000015560208201518160010160006101000a81548173ffffffffffffffffffffffffffffffffffffffff021916908373ffffffffffffffffffffffffffffffffffffffff1602179055506040820151816002019080519060200190620007ae929190620009f1565b506060820151816003019080519060200190620007cd929190620009f1565b5060808201518160040160006101000a81548160ff021916908360ff16021790555060a08201518160040160016101000a81548160ff02191690831515021790555060c08201518160040160026101000a81548160ff0219169083151502179055509050506040518060e00160405280600481526020017330919bd8da626296de979dc276cd02fd7a3b224a73ffffffffffffffffffffffffffffffffffffffff168152602001604051806080016040528060428152602001620021b56042913981526020016040518060400160405280600681526020017f566f7465723400000000000000000000000000000000000000000000000000008152508152602001601d60ff1681526020016001151581526020016000151581525060016000600481526020019081526020016000206000820151816000015560208201518160010160006101000a81548173ffffffffffffffffffffffffffffffffffffffff021916908373ffffffffffffffffffffffffffffffffffffffff16021790555060408201518160020190805190602001906200096b929190620009f1565b5060608201518160030190805190602001906200098a929190620009f1565b5060808201518160040160006101000a81548160ff021916908360ff16021790555060a08201518160040160016101000a81548160ff02191690831515021790555060c08201518160040160026101000a81548160ff021916908315150217905550905050565b828054600181600116156101000203166002900490600052602060002090601f016020900481019282601f1062000a3457805160ff191683800117855562000a65565b8280016001018555821562000a65579182015b8281111562000a6457825182559160200191906001019062000a47565b5b50905062000a74919062000a78565b5090565b62000a9d91905b8082111562000a9957600081600090555060010162000a7f565b5090565b90565b6117058062000ab06000396000f3fe608060405234801561001057600080fd5b50600436106100d1576000357c0100000000000000000000000000000000000000000000000000000000900480636a82ee511161008e5780636a82ee511461048e57806377da476f146104ac5780637b8fe16614610512578063b1bf87b014610675578063b9d8455214610693578063bb9aa28f146106cb576100d1565b806309eef43e146100d65780633477ee2e1461013257806335b8e820146102535780634717f97c1461036d5780635be5e3ec146104145780635d816e2214610456575b600080fd5b610118600480360360208110156100ec57600080fd5b81019080803573ffffffffffffffffffffffffffffffffffffffff1690602001909291905050506106e9565b604051808215151515815260200191505060405180910390f35b61015e6004803603602081101561014857600080fd5b8101908080359060200190929190505050610742565b604051808060200180602001858152602001848152602001838103835287818151815260200191508051906020019080838360005b838110156101ae578082015181840152602081019050610193565b50505050905090810190601f1680156101db5780820380516001836020036101000a031916815260200191505b50838103825286818151815260200191508051906020019080838360005b838110156102145780820151818401526020810190506101f9565b50505050905090810190601f1680156102415780820380516001836020036101000a031916815260200191505b50965050505050505060405180910390f35b61027f6004803603602081101561026957600080fd5b81019080803590602001909291905050506108af565b604051808060200180602001848152602001838103835286818151815260200191508051906020019080838360005b838110156102c95780820151818401526020810190506102ae565b50505050905090810190601f1680156102f65780820380516001836020036101000a031916815260200191505b50838103825285818151815260200191508051906020019080838360005b8381101561032f578082015181840152602081019050610314565b50505050905090810190601f16801561035c5780820380516001836020036101000a031916815260200191505b509550505050505060405180910390f35b610375610af3565b604051808060200180602001838103835285818151815260200191508051906020019060200280838360005b838110156103bc5780820151818401526020810190506103a1565b50505050905001838103825284818151815260200191508051906020019060200280838360005b838110156103fe5780820151818401526020810190506103e3565b5050505090500194505050505060405180910390f35b6104546004803603606081101561042a57600080fd5b81019080803590602001909291908035906020019092919080359060200190929190505050610cf7565b005b61048c6004803603604081101561046c57600080fd5b8101908080359060200190929190803590602001909291905050506111ce565b005b61049661124f565b6040518082815260200191505060405180910390f35b6104f8600480360360408110156104c257600080fd5b8101908080359060200190929190803573ffffffffffffffffffffffffffffffffffffffff169060200190929190505050611259565b604051808215151515815260200191505060405180910390f35b61053e6004803603602081101561052857600080fd5b8101908080359060200190929190505050611310565b604051808773ffffffffffffffffffffffffffffffffffffffff1673ffffffffffffffffffffffffffffffffffffffff16815260200180602001806020018681526020018515151515815260200184151515158152602001838103835288818151815260200191508051906020019080838360005b838110156105ce5780820151818401526020810190506105b3565b50505050905090810190601f1680156105fb5780820380516001836020036101000a031916815260200191505b50838103825287818151815260200191508051906020019080838360005b83811015610634578082015181840152602081019050610619565b50505050905090810190601f1680156106615780820380516001836020036101000a031916815260200191505b509850505050505050505060405180910390f35b61067d611570565b6040518082815260200191505060405180910390f35b6106c9600480360360408110156106a957600080fd5b81019080803590602001909291908035906020019092919050505061157a565b005b6106d36115ed565b6040518082815260200191505060405180910390f35b6000600260008373ffffffffffffffffffffffffffffffffffffffff1673ffffffffffffffffffffffffffffffffffffffff16815260200190815260200160002060040160029054906101000a900460ff169050919050565b6000818154811061074f57fe5b9060005260206000209060040201600091509050806000018054600181600116156101000203166002900480601f0160208091040260200160405190810160405280929190818152602001828054600181600116156101000203166002900480156107fb5780601f106107d0576101008083540402835291602001916107fb565b820191906000526020600020905b8154815290600101906020018083116107de57829003601f168201915b505050505090806001018054600181600116156101000203166002900480601f0160208091040260200160405190810160405280929190818152602001828054600181600116156101000203166002900480156108995780601f1061086e57610100808354040283529160200191610899565b820191906000526020600020905b81548152906001019060200180831161087c57829003601f168201915b5050505050908060020154908060030154905084565b6060806000426004548110156108c457600080fd5b6005548111156108d357600080fd5b600080549050851061094d576040517f08c379a00000000000000000000000000000000000000000000000000000000081526004018080602001828103825260178152602001807f496e76616c69642063616e64696461746520696e64657800000000000000000081525060200191505060405180910390fd5b610955611628565b6000868154811061096257fe5b9060005260206000209060040201604051806080016040529081600082018054600181600116156101000203166002900480601f016020809104026020016040519081016040528092919081815260200182805460018160011615610100020316600290048015610a145780601f106109e957610100808354040283529160200191610a14565b820191906000526020600020905b8154815290600101906020018083116109f757829003601f168201915b50505050508152602001600182018054600181600116156101000203166002900480601f016020809104026020016040519081016040528092919081815260200182805460018160011615610100020316600290048015610ab65780601f10610a8b57610100808354040283529160200191610ab6565b820191906000526020600020905b815481529060010190602001808311610a9957829003601f168201915b5050505050815260200160028201548152602001600382015481525050905080600001519450806020015193508060400151925050509193909250565b6060806005544211610b50576040517f08c379a00000000000000000000000000000000000000000000000000000000081526004018080602001828103825260268152602001806116ab6026913960400191505060405180910390fd5b600080549050604051908082528060200260200182016040528015610b845781602001602082028038833980820191505090505b509150600080549050604051908082528060200260200182016040528015610bbb5781602001602082028038833980820191505090505b50905060008090505b600080549050811015610cec57610c9060008281548110610be157fe5b90600052602060002090600402016000018054600181600116156101000203166002900480601f016020809104026020016040519081016040528092919081815260200182805460018160011615610100020316600290048015610c865780601f10610c5b57610100808354040283529160200191610c86565b820191906000526020600020905b815481529060010190602001808311610c6957829003601f168201915b505050505061161a565b838281518110610c9c57fe5b60200260200101818152505060008181548110610cb557fe5b906000526020600020906004020160030154828281518110610cd357fe5b6020026020010181815250508080600101915050610bc4565b508181915091509091565b80600454811015610d0757600080fd5b600554811115610d1657600080fd5b8284610d20611650565b600160008481526020019081526020016000206040518060e0016040529081600082015481526020016001820160009054906101000a900473ffffffffffffffffffffffffffffffffffffffff1673ffffffffffffffffffffffffffffffffffffffff1673ffffffffffffffffffffffffffffffffffffffff168152602001600282018054600181600116156101000203166002900480601f016020809104026020016040519081016040528092919081815260200182805460018160011615610100020316600290048015610e375780601f10610e0c57610100808354040283529160200191610e37565b820191906000526020600020905b815481529060010190602001808311610e1a57829003601f168201915b50505050508152602001600382018054600181600116156101000203166002900480601f016020809104026020016040519081016040528092919081815260200182805460018160011615610100020316600290048015610ed95780601f10610eae57610100808354040283529160200191610ed9565b820191906000526020600020905b815481529060010190602001808311610ebc57829003601f168201915b505050505081526020016004820160009054906101000a900460ff1660ff1660ff1681526020016004820160019054906101000a900460ff161515151581526020016004820160029054906101000a900460ff1615151515815250509050610f3f611628565b60008381548110610f4c57fe5b9060005260206000209060040201604051806080016040529081600082018054600181600116156101000203166002900480601f016020809104026020016040519081016040528092919081815260200182805460018160011615610100020316600290048015610ffe5780601f10610fd357610100808354040283529160200191610ffe565b820191906000526020600020905b815481529060010190602001808311610fe157829003601f168201915b50505050508152602001600182018054600181600116156101000203166002900480601f0160208091040260200160405190810160405280929190818152602001828054600181600116156101000203166002900480156110a05780601f10611075576101008083540402835291602001916110a0565b820191906000526020600020905b81548152906001019060200180831161108357829003601f168201915b505050505081526020016002820154815260200160038201548152505090506012826080015160ff1610156110d457600080fd5b8160a001516110e257600080fd5b600015158260c001511515146110f757600080fd5b6001600260003373ffffffffffffffffffffffffffffffffffffffff1673ffffffffffffffffffffffffffffffffffffffff16815260200190815260200160002060040160026101000a81548160ff0219169083151502179055506000888154811061115f57fe5b906000526020600020906004020160030160008154809291906001019190505550873373ffffffffffffffffffffffffffffffffffffffff167fd0e6c39f2e086dc49f1524b47725526a56945cd1ff661f37976f1725a1e5698660405160405180910390a35050505050505050565b600360009054906101000a900473ffffffffffffffffffffffffffffffffffffffff1673ffffffffffffffffffffffffffffffffffffffff163373ffffffffffffffffffffffffffffffffffffffff161461122857600080fd5b806004541061123657600080fd5b806005541161124457600080fd5b816005819055505050565b6000600454905090565b6000806001600085815260200190815260200160002090508273ffffffffffffffffffffffffffffffffffffffff168160010160009054906101000a900473ffffffffffffffffffffffffffffffffffffffff1673ffffffffffffffffffffffffffffffffffffffff161480156112e5575060128160040160009054906101000a900460ff1660ff1610155b80156112ff57508060040160019054906101000a900460ff165b1561130957600191505b5092915050565b60006060806000806000611322611650565b600160008981526020019081526020016000206040518060e0016040529081600082015481526020016001820160009054906101000a900473ffffffffffffffffffffffffffffffffffffffff1673ffffffffffffffffffffffffffffffffffffffff1673ffffffffffffffffffffffffffffffffffffffff168152602001600282018054600181600116156101000203166002900480601f0160208091040260200160405190810160405280929190818152602001828054600181600116156101000203166002900480156114395780601f1061140e57610100808354040283529160200191611439565b820191906000526020600020905b81548152906001019060200180831161141c57829003601f168201915b50505050508152602001600382018054600181600116156101000203166002900480601f0160208091040260200160405190810160405280929190818152602001828054600181600116156101000203166002900480156114db5780601f106114b0576101008083540402835291602001916114db565b820191906000526020600020905b8154815290600101906020018083116114be57829003601f168201915b505050505081526020016004820160009054906101000a900460ff1660ff1660ff1681526020016004820160019054906101000a900460ff161515151581526020016004820160029054906101000a900460ff1615151515815250509050806020015196508060600151945080604001519550806080015160ff1693508060a0015192508060c0015191505091939550919395565b6000600554905090565b600360009054906101000a900473ffffffffffffffffffffffffffffffffffffffff1673ffffffffffffffffffffffffffffffffffffffff163373ffffffffffffffffffffffffffffffffffffffff16146115d457600080fd5b80600454116115e257600080fd5b816004819055505050565b6000426004548110156115ff57600080fd5b60055481111561160e57600080fd5b60008054905091505090565b600060208201519050919050565b6040518060800160405280606081526020016060815260200160008152602001600081525090565b6040518060e0016040528060008152602001600073ffffffffffffffffffffffffffffffffffffffff1681526020016060815260200160608152602001600060ff168152602001600015158152602001600015158152509056fe456c656374696f6e20726573756c747320617265206e6f7420617661696c61626c6520796574a265627a7a723158201676e823fc7b419982941a8eb971fa72fb5b4a9c04866bb657c9a176ada2323c64736f6c63430005100032307862363866653433663064316130643761656631323337323236373062653530323638653135333635343031633434326638383036656638336236313239373662",
  "source": "pragma solidity ^0.5.16;\r\nimport \"./Types.sol\";\r\n\r\ncontract Voting {\r\n    Types.Candidate[] public candidates;\r\n    mapping(uint256 => Types.Voter) voters;\r\n    mapping(address => Types.Voter) votersByAddress;\r\n    //mapping(uint256 => Types.Candidate) candidate;\r\n    //mapping(uint256 => uint256) internal votesCount;\r\n\r\n    address chairman;\r\n    uint256 private votingStartTime;\r\n    uint256 private votingEndTime;\r\n\r\n    constructor(uint256 startTime_, uint256 endTime_) public {\r\n        initializeCandidateDatabase_();\r\n        initializeVoterDatabase_();\r\n        votingStartTime = startTime_;\r\n        votingEndTime = endTime_;\r\n        chairman = msg.sender;\r\n    }\r\n\r\n    function isVoterEligible(uint256 voter_id, address account) public view returns (bool voterEligible_) {\r\n        Types.Voter storage voter_ = voters[voter_id];\r\n        if (voter_.account==account && voter_.age >= 18 && voter_.isAlive) voterEligible_ = true;\r\n    }\r\n\r\n    function hasVoted(address acoount) public view returns (bool userVoted_)\r\n    {\r\n        userVoted_ = (votersByAddress[acoount].hasVoted);\r\n    }\r\n\r\n    function castVote(\r\n        uint256 candidate_id,\r\n        uint256 voter_id,\r\n        uint256 currentTime_\r\n    )\r\n        public\r\n        electionInProcess(currentTime_)\r\n        isVoteValid(voter_id, candidate_id) \r\n    {\r\n        //voters[voter_id].hasVoted = true;\r\n        votersByAddress[msg.sender].hasVoted = true;\r\n        candidates[candidate_id].voteCount++;  // Increment the vote count for the chosen candidate\r\n        emit VoteCasted(msg.sender, candidate_id);  // Emit an event for the vote casted\r\n    }\r\n\r\n    event VoteCasted(address indexed voter_id, uint256 indexed candidate_id);\r\n\r\n    function getVotingStartTime() public view returns (uint256 startTime_) {\r\n    return votingStartTime;\r\n    }\r\n\r\n    function getVotingEndTime() public view returns (uint256 endTime_) {\r\n        endTime_ = votingEndTime;\r\n    }\r\n\r\n    function updateVotingStartTime(uint256 startTime_, uint256 currentTime_)\r\n        public\r\n        isChairman\r\n    {\r\n        require(votingStartTime > currentTime_);\r\n        votingStartTime = startTime_;\r\n    }\r\n\r\n    function extendVotingTime(uint256 endTime_, uint256 currentTime_)\r\n        public\r\n        isChairman\r\n    {\r\n        require(votingStartTime < currentTime_);\r\n        require(votingEndTime > currentTime_);\r\n        votingEndTime = endTime_;\r\n    }\r\n\r\n\r\n    function getCandidate(uint256 index) public electionInProcess(now) returns (\r\n        string memory name,\r\n        string memory party,\r\n        uint256 id)\r\n    {\r\n        require(index < candidates.length, \"Invalid candidate index\");\r\n        Types.Candidate memory candidate = candidates[index];\r\n        name = candidate.name;\r\n        party = candidate.party;\r\n        id = candidate.id;\r\n    }\r\n\r\n    \r\n    function getCandidatesCount() public electionInProcess(now) returns (uint256) {\r\n        return candidates.length;\r\n    }\r\n\r\n    function getVoterDetails(uint256 voter_id) public view returns (address account,string memory passwordHash, string memory name, uint256 age, bool isAlive, bool hasVoted) {\r\n        Types.Voter memory voter = voters[voter_id];\r\n        account = voter.account;\r\n        name = voter.name;\r\n        passwordHash = voter.passwordHash;\r\n        age = voter.age;\r\n        isAlive = voter.isAlive;\r\n        hasVoted = voter.hasVoted;\r\n    }\r\n\r\n    function getResults() public view returns (bytes32[] memory candidateNames, uint256[] memory voteCounts) {\r\n        require(now > votingEndTime, \"Election results are not available yet\");\r\n\r\n        candidateNames = new bytes32[](candidates.length);\r\n        voteCounts = new uint256[](candidates.length);\r\n\r\n        for (uint256 i = 0; i < candidates.length; i++) {\r\n            candidateNames[i] = stringToBytes32(candidates[i].name);\r\n            voteCounts[i] = candidates[i].voteCount;\r\n        }\r\n    return (candidateNames, voteCounts);\r\n    }\r\n\r\n    function stringToBytes32(string memory source) internal pure returns (bytes32 result) {\r\n        assembly {\r\n         result := mload(add(source, 32))\r\n        }\r\n    }\r\n\r\n  \r\n    modifier electionInProcess(uint256 currentTime) {\r\n        require(currentTime >= votingStartTime);\r\n        require(currentTime <= votingEndTime);\r\n        _;\r\n    }\r\n\r\n    modifier isVoteValid(uint256 voter_id, uint256 candidate_id) {\r\n        Types.Voter memory voter = voters[voter_id];\r\n        Types.Candidate memory candidate = candidates[candidate_id];\r\n        require(voter.age >= 18);\r\n        require(voter.isAlive);\r\n        require(voter.hasVoted==false);\r\n        _;\r\n    }\r\n\r\n    modifier isChairman() {\r\n        require(msg.sender == chairman);\r\n        _;\r\n    }\r\n\r\n    //Dummy data for candidates and voters\r\n    function initializeCandidateDatabase_() internal {\r\n    candidates.push(Types.Candidate(\"Candidate 1\", \"Party A\", 1, 0));\r\n    candidates.push(Types.Candidate(\"Candidate 2\", \"Party B\", 2, 0));\r\n}\r\n\r\nfunction initializeVoterDatabase_() internal {\r\n    voters[1] = Types.Voter(1, 0xFBA1b27A783afe48d2de6627B059581E6388Dd7A, \"0xb68fe43f0d1a0d7aef123722670be50268e15365401c442f8806ef83b612976b\", \"Voter1\", 25, true, false);\r\n    voters[2] = Types.Voter(2, 0xAB255ddf10944022DDBEfa349ce6847245023e82, \"0xb68fe43f0d1a0d7aef123722670be50268e15365401c442f8806ef83b612976b\", \"Voter2\", 30, true, false);\r\n    voters[3] = Types.Voter(3, 0xFbD0e74627339FcE677d6672C7F1689E0C56954A, \"0xb68fe43f0d1a0d7aef123722670be50268e15365401c442f8806ef83b612976b\", \"Voter3\", 77, true, false);\r\n    voters[4] = Types.Voter(4, 0x30919bD8dA626296De979dc276Cd02fd7a3B224A, \"0xb68fe43f0d1a0d7aef123722670be50268e15365401c442f8806ef83b612976b\", \"Voter4\", 29, true, false);\r\n\r\n}\r\n}",
  "sourcePath": "C:/Users/danie/truffleProjects/ElectionSystem/src/contracts/Voting.sol",
  "compiler": {
    "name": "solc",
    "version": "0.5.16+commit.9c3226ce.Emscripten.clang"
  },
  "schemaVersion": "3.0.1",
  "updatedAt": "2023-09-15T13:37:43.482Z",
  "devdoc": {
    "methods": {}
  },
  "userdoc": {
    "methods": {}
  }
}